{
  "contractName": "ArtCollectible",
  "abi": [
    {
      "inputs": [],
      "stateMutability": "nonpayable",
      "type": "constructor"
    },
    {
      "anonymous": false,
      "inputs": [
        {
          "indexed": true,
          "internalType": "address",
          "name": "account",
          "type": "address"
        },
        {
          "indexed": true,
          "internalType": "address",
          "name": "operator",
          "type": "address"
        },
        {
          "indexed": false,
          "internalType": "bool",
          "name": "approved",
          "type": "bool"
        }
      ],
      "name": "ApprovalForAll",
      "type": "event"
    },
    {
      "anonymous": false,
      "inputs": [
        {
          "indexed": true,
          "internalType": "address",
          "name": "previousOwner",
          "type": "address"
        },
        {
          "indexed": true,
          "internalType": "address",
          "name": "newOwner",
          "type": "address"
        }
      ],
      "name": "OwnershipTransferred",
      "type": "event"
    },
    {
      "anonymous": false,
      "inputs": [
        {
          "indexed": true,
          "internalType": "address",
          "name": "operator",
          "type": "address"
        },
        {
          "indexed": true,
          "internalType": "address",
          "name": "from",
          "type": "address"
        },
        {
          "indexed": true,
          "internalType": "address",
          "name": "to",
          "type": "address"
        },
        {
          "indexed": false,
          "internalType": "uint256[]",
          "name": "ids",
          "type": "uint256[]"
        },
        {
          "indexed": false,
          "internalType": "uint256[]",
          "name": "values",
          "type": "uint256[]"
        }
      ],
      "name": "TransferBatch",
      "type": "event"
    },
    {
      "anonymous": false,
      "inputs": [
        {
          "indexed": true,
          "internalType": "address",
          "name": "operator",
          "type": "address"
        },
        {
          "indexed": true,
          "internalType": "address",
          "name": "from",
          "type": "address"
        },
        {
          "indexed": true,
          "internalType": "address",
          "name": "to",
          "type": "address"
        },
        {
          "indexed": false,
          "internalType": "uint256",
          "name": "id",
          "type": "uint256"
        },
        {
          "indexed": false,
          "internalType": "uint256",
          "name": "value",
          "type": "uint256"
        }
      ],
      "name": "TransferSingle",
      "type": "event"
    },
    {
      "anonymous": false,
      "inputs": [
        {
          "indexed": false,
          "internalType": "string",
          "name": "value",
          "type": "string"
        },
        {
          "indexed": true,
          "internalType": "uint256",
          "name": "id",
          "type": "uint256"
        }
      ],
      "name": "URI",
      "type": "event"
    },
    {
      "inputs": [
        {
          "internalType": "address",
          "name": "account",
          "type": "address"
        },
        {
          "internalType": "uint256",
          "name": "id",
          "type": "uint256"
        }
      ],
      "name": "balanceOf",
      "outputs": [
        {
          "internalType": "uint256",
          "name": "",
          "type": "uint256"
        }
      ],
      "stateMutability": "view",
      "type": "function",
      "constant": true
    },
    {
      "inputs": [
        {
          "internalType": "address[]",
          "name": "accounts",
          "type": "address[]"
        },
        {
          "internalType": "uint256[]",
          "name": "ids",
          "type": "uint256[]"
        }
      ],
      "name": "balanceOfBatch",
      "outputs": [
        {
          "internalType": "uint256[]",
          "name": "",
          "type": "uint256[]"
        }
      ],
      "stateMutability": "view",
      "type": "function",
      "constant": true
    },
    {
      "inputs": [
        {
          "internalType": "address",
          "name": "account",
          "type": "address"
        },
        {
          "internalType": "address",
          "name": "operator",
          "type": "address"
        }
      ],
      "name": "isApprovedForAll",
      "outputs": [
        {
          "internalType": "bool",
          "name": "",
          "type": "bool"
        }
      ],
      "stateMutability": "view",
      "type": "function",
      "constant": true
    },
    {
      "inputs": [],
      "name": "name",
      "outputs": [
        {
          "internalType": "string",
          "name": "",
          "type": "string"
        }
      ],
      "stateMutability": "view",
      "type": "function",
      "constant": true
    },
    {
      "inputs": [],
      "name": "owner",
      "outputs": [
        {
          "internalType": "address",
          "name": "",
          "type": "address"
        }
      ],
      "stateMutability": "view",
      "type": "function",
      "constant": true
    },
    {
      "inputs": [],
      "name": "renounceOwnership",
      "outputs": [],
      "stateMutability": "nonpayable",
      "type": "function"
    },
    {
      "inputs": [
        {
          "internalType": "address",
          "name": "from",
          "type": "address"
        },
        {
          "internalType": "address",
          "name": "to",
          "type": "address"
        },
        {
          "internalType": "uint256[]",
          "name": "ids",
          "type": "uint256[]"
        },
        {
          "internalType": "uint256[]",
          "name": "amounts",
          "type": "uint256[]"
        },
        {
          "internalType": "bytes",
          "name": "data",
          "type": "bytes"
        }
      ],
      "name": "safeBatchTransferFrom",
      "outputs": [],
      "stateMutability": "nonpayable",
      "type": "function"
    },
    {
      "inputs": [
        {
          "internalType": "address",
          "name": "from",
          "type": "address"
        },
        {
          "internalType": "address",
          "name": "to",
          "type": "address"
        },
        {
          "internalType": "uint256",
          "name": "id",
          "type": "uint256"
        },
        {
          "internalType": "uint256",
          "name": "amount",
          "type": "uint256"
        },
        {
          "internalType": "bytes",
          "name": "data",
          "type": "bytes"
        }
      ],
      "name": "safeTransferFrom",
      "outputs": [],
      "stateMutability": "nonpayable",
      "type": "function"
    },
    {
      "inputs": [
        {
          "internalType": "address",
          "name": "operator",
          "type": "address"
        },
        {
          "internalType": "bool",
          "name": "approved",
          "type": "bool"
        }
      ],
      "name": "setApprovalForAll",
      "outputs": [],
      "stateMutability": "nonpayable",
      "type": "function"
    },
    {
      "inputs": [
        {
          "internalType": "bytes4",
          "name": "interfaceId",
          "type": "bytes4"
        }
      ],
      "name": "supportsInterface",
      "outputs": [
        {
          "internalType": "bool",
          "name": "",
          "type": "bool"
        }
      ],
      "stateMutability": "view",
      "type": "function",
      "constant": true
    },
    {
      "inputs": [
        {
          "internalType": "address",
          "name": "newOwner",
          "type": "address"
        }
      ],
      "name": "transferOwnership",
      "outputs": [],
      "stateMutability": "nonpayable",
      "type": "function"
    },
    {
      "inputs": [
        {
          "internalType": "uint256",
          "name": "",
          "type": "uint256"
        }
      ],
      "name": "uri",
      "outputs": [
        {
          "internalType": "string",
          "name": "",
          "type": "string"
        }
      ],
      "stateMutability": "view",
      "type": "function",
      "constant": true
    },
    {
      "inputs": [
        {
          "internalType": "string",
          "name": "_newuri",
          "type": "string"
        }
      ],
      "name": "setURI",
      "outputs": [],
      "stateMutability": "nonpayable",
      "type": "function"
    },
    {
      "inputs": [
        {
          "internalType": "string",
          "name": "_name",
          "type": "string"
        }
      ],
      "name": "setName",
      "outputs": [],
      "stateMutability": "nonpayable",
      "type": "function"
    },
    {
      "inputs": [
        {
          "internalType": "uint256[]",
          "name": "ids",
          "type": "uint256[]"
        },
        {
          "internalType": "uint256[]",
          "name": "amounts",
          "type": "uint256[]"
        }
      ],
      "name": "mintBatch",
      "outputs": [],
      "stateMutability": "nonpayable",
      "type": "function"
    },
    {
      "inputs": [
        {
          "internalType": "uint256",
          "name": "id",
          "type": "uint256"
        },
        {
          "internalType": "uint256",
          "name": "amount",
          "type": "uint256"
        }
      ],
      "name": "mint",
      "outputs": [],
      "stateMutability": "nonpayable",
      "type": "function"
    }
  ],
  "bytecode": "0x60806040523480156200001157600080fd5b506040518060600160405280602481526020016200381d602491396200004c62000040620000aa60201b60201c565b620000b260201b60201c565b6200005d816200017660201b60201c565b50620000a46040518060400160405280601a81526020017f434f4c4c454354494f4e5f4e414d455f544f5f5245504c4143450000000000008152506200019260201b60201c565b620003fe565b600033905090565b60008060009054906101000a900473ffffffffffffffffffffffffffffffffffffffff169050816000806101000a81548173ffffffffffffffffffffffffffffffffffffffff021916908373ffffffffffffffffffffffffffffffffffffffff1602179055508173ffffffffffffffffffffffffffffffffffffffff168173ffffffffffffffffffffffffffffffffffffffff167f8be0079c531659141344cd1fd0a4f28419497f9722a3daafe3b4186f6b6457e060405160405180910390a35050565b80600390805190602001906200018e92919062000266565b5050565b620001a2620000aa60201b60201c565b73ffffffffffffffffffffffffffffffffffffffff16620001c86200023d60201b60201c565b73ffffffffffffffffffffffffffffffffffffffff161462000221576040517f08c379a0000000000000000000000000000000000000000000000000000000008152600401620002189062000377565b60405180910390fd5b80600590805190602001906200023992919062000266565b5050565b60008060009054906101000a900473ffffffffffffffffffffffffffffffffffffffff16905090565b8280546200027490620003c8565b90600052602060002090601f016020900481019282620002985760008555620002e4565b82601f10620002b357805160ff1916838001178555620002e4565b82800160010185558215620002e4579182015b82811115620002e3578251825591602001919060010190620002c6565b5b509050620002f39190620002f7565b5090565b5b8082111562000312576000816000905550600101620002f8565b5090565b600082825260208201905092915050565b7f4f776e61626c653a2063616c6c6572206973206e6f7420746865206f776e6572600082015250565b60006200035f60208362000316565b91506200036c8262000327565b602082019050919050565b60006020820190508181036000830152620003928162000350565b9050919050565b7f4e487b7100000000000000000000000000000000000000000000000000000000600052602260045260246000fd5b60006002820490506001821680620003e157607f821691505b60208210811415620003f857620003f762000399565b5b50919050565b61340f806200040e6000396000f3fe608060405234801561001057600080fd5b50600436106100ff5760003560e01c8063715018a611610097578063d351cfdc11610066578063d351cfdc14610296578063e985e9c5146102b2578063f242432a146102e2578063f2fde38b146102fe576100ff565b8063715018a6146102365780638da5cb5b14610240578063a22cb4651461025e578063c47f00271461027a576100ff565b80630e89341c116100d35780630e89341c1461019e5780631b2ef1ca146101ce5780632eb2c2d6146101ea5780634e1273f414610206576100ff565b8062fdd58e1461010457806301ffc9a71461013457806302fe53051461016457806306fdde0314610180575b600080fd5b61011e60048036038101906101199190611e89565b61031a565b60405161012b9190611ed8565b60405180910390f35b61014e60048036038101906101499190611f4b565b6103e4565b60405161015b9190611f93565b60405180910390f35b61017e600480360381019061017991906120f4565b6104c6565b005b61018861054e565b60405161019591906121c5565b60405180910390f35b6101b860048036038101906101b391906121e7565b6105dc565b6040516101c591906121c5565b60405180910390f35b6101e860048036038101906101e39190612214565b610670565b005b61020460048036038101906101ff91906123bd565b61070b565b005b610220600480360381019061021b919061254f565b6107ac565b60405161022d9190612685565b60405180910390f35b61023e6108c5565b005b61024861094d565b60405161025591906126b6565b60405180910390f35b610278600480360381019061027391906126fd565b610976565b005b610294600480360381019061028f91906120f4565b61098c565b005b6102b060048036038101906102ab919061273d565b610a22565b005b6102cc60048036038101906102c791906127b5565b610abd565b6040516102d99190611f93565b60405180910390f35b6102fc60048036038101906102f791906127f5565b610b51565b005b6103186004803603810190610313919061288c565b610bf2565b005b60008073ffffffffffffffffffffffffffffffffffffffff168373ffffffffffffffffffffffffffffffffffffffff16141561038b576040517f08c379a00000000000000000000000000000000000000000000000000000000081526004016103829061292b565b60405180910390fd5b6001600083815260200190815260200160002060008473ffffffffffffffffffffffffffffffffffffffff1673ffffffffffffffffffffffffffffffffffffffff16815260200190815260200160002054905092915050565b60007fd9b67a26000000000000000000000000000000000000000000000000000000007bffffffffffffffffffffffffffffffffffffffffffffffffffffffff1916827bffffffffffffffffffffffffffffffffffffffffffffffffffffffff191614806104af57507f0e89341c000000000000000000000000000000000000000000000000000000007bffffffffffffffffffffffffffffffffffffffffffffffffffffffff1916827bffffffffffffffffffffffffffffffffffffffffffffffffffffffff1916145b806104bf57506104be82610cea565b5b9050919050565b6104ce610d54565b73ffffffffffffffffffffffffffffffffffffffff166104ec61094d565b73ffffffffffffffffffffffffffffffffffffffff1614610542576040517f08c379a000000000000000000000000000000000000000000000000000000000815260040161053990612997565b60405180910390fd5b61054b81610d5c565b50565b6005805461055b906129e6565b80601f0160208091040260200160405190810160405280929190818152602001828054610587906129e6565b80156105d45780601f106105a9576101008083540402835291602001916105d4565b820191906000526020600020905b8154815290600101906020018083116105b757829003601f168201915b505050505081565b6060600380546105eb906129e6565b80601f0160208091040260200160405190810160405280929190818152602001828054610617906129e6565b80156106645780601f1061063957610100808354040283529160200191610664565b820191906000526020600020905b81548152906001019060200180831161064757829003601f168201915b50505050509050919050565b610678610d54565b73ffffffffffffffffffffffffffffffffffffffff1661069661094d565b73ffffffffffffffffffffffffffffffffffffffff16146106ec576040517f08c379a00000000000000000000000000000000000000000000000000000000081526004016106e390612997565b60405180910390fd5b61070733838360405180602001604052806000815250610d76565b5050565b610713610d54565b73ffffffffffffffffffffffffffffffffffffffff168573ffffffffffffffffffffffffffffffffffffffff161480610759575061075885610753610d54565b610abd565b5b610798576040517f08c379a000000000000000000000000000000000000000000000000000000000815260040161078f90612a8a565b60405180910390fd5b6107a58585858585610f0d565b5050505050565b606081518351146107f2576040517f08c379a00000000000000000000000000000000000000000000000000000000081526004016107e990612b1c565b60405180910390fd5b6000835167ffffffffffffffff81111561080f5761080e611fc9565b5b60405190808252806020026020018201604052801561083d5781602001602082028036833780820191505090505b50905060005b84518110156108ba5761088a85828151811061086257610861612b3c565b5b602002602001015185838151811061087d5761087c612b3c565b5b602002602001015161031a565b82828151811061089d5761089c612b3c565b5b602002602001018181525050806108b390612b9a565b9050610843565b508091505092915050565b6108cd610d54565b73ffffffffffffffffffffffffffffffffffffffff166108eb61094d565b73ffffffffffffffffffffffffffffffffffffffff1614610941576040517f08c379a000000000000000000000000000000000000000000000000000000000815260040161093890612997565b60405180910390fd5b61094b6000611224565b565b60008060009054906101000a900473ffffffffffffffffffffffffffffffffffffffff16905090565b610988610981610d54565b83836112e8565b5050565b610994610d54565b73ffffffffffffffffffffffffffffffffffffffff166109b261094d565b73ffffffffffffffffffffffffffffffffffffffff1614610a08576040517f08c379a00000000000000000000000000000000000000000000000000000000081526004016109ff90612997565b60405180910390fd5b8060059080519060200190610a1e929190611d3e565b5050565b610a2a610d54565b73ffffffffffffffffffffffffffffffffffffffff16610a4861094d565b73ffffffffffffffffffffffffffffffffffffffff1614610a9e576040517f08c379a0000000000000000000000000000000000000000000000000000000008152600401610a9590612997565b60405180910390fd5b610ab933838360405180602001604052806000815250611455565b5050565b6000600260008473ffffffffffffffffffffffffffffffffffffffff1673ffffffffffffffffffffffffffffffffffffffff16815260200190815260200160002060008373ffffffffffffffffffffffffffffffffffffffff1673ffffffffffffffffffffffffffffffffffffffff16815260200190815260200160002060009054906101000a900460ff16905092915050565b610b59610d54565b73ffffffffffffffffffffffffffffffffffffffff168573ffffffffffffffffffffffffffffffffffffffff161480610b9f5750610b9e85610b99610d54565b610abd565b5b610bde576040517f08c379a0000000000000000000000000000000000000000000000000000000008152600401610bd590612c55565b60405180910390fd5b610beb8585858585611674565b5050505050565b610bfa610d54565b73ffffffffffffffffffffffffffffffffffffffff16610c1861094d565b73ffffffffffffffffffffffffffffffffffffffff1614610c6e576040517f08c379a0000000000000000000000000000000000000000000000000000000008152600401610c6590612997565b60405180910390fd5b600073ffffffffffffffffffffffffffffffffffffffff168173ffffffffffffffffffffffffffffffffffffffff161415610cde576040517f08c379a0000000000000000000000000000000000000000000000000000000008152600401610cd590612ce7565b60405180910390fd5b610ce781611224565b50565b60007f01ffc9a7000000000000000000000000000000000000000000000000000000007bffffffffffffffffffffffffffffffffffffffffffffffffffffffff1916827bffffffffffffffffffffffffffffffffffffffffffffffffffffffff1916149050919050565b600033905090565b8060039080519060200190610d72929190611d3e565b5050565b600073ffffffffffffffffffffffffffffffffffffffff168473ffffffffffffffffffffffffffffffffffffffff161415610de6576040517f08c379a0000000000000000000000000000000000000000000000000000000008152600401610ddd90612d79565b60405180910390fd5b6000610df0610d54565b9050610e1181600087610e02886118f9565b610e0b886118f9565b87611973565b826001600086815260200190815260200160002060008773ffffffffffffffffffffffffffffffffffffffff1673ffffffffffffffffffffffffffffffffffffffff1681526020019081526020016000206000828254610e719190612d99565b925050819055508473ffffffffffffffffffffffffffffffffffffffff16600073ffffffffffffffffffffffffffffffffffffffff168273ffffffffffffffffffffffffffffffffffffffff167fc3d58168c5ae7397731d063d5bbf3d657854427343f4c083240f7aacaa2d0f628787604051610eef929190612def565b60405180910390a4610f068160008787878761197b565b5050505050565b8151835114610f51576040517f08c379a0000000000000000000000000000000000000000000000000000000008152600401610f4890612e8a565b60405180910390fd5b600073ffffffffffffffffffffffffffffffffffffffff168473ffffffffffffffffffffffffffffffffffffffff161415610fc1576040517f08c379a0000000000000000000000000000000000000000000000000000000008152600401610fb890612f1c565b60405180910390fd5b6000610fcb610d54565b9050610fdb818787878787611973565b60005b845181101561118f576000858281518110610ffc57610ffb612b3c565b5b60200260200101519050600085838151811061101b5761101a612b3c565b5b6020026020010151905060006001600084815260200190815260200160002060008b73ffffffffffffffffffffffffffffffffffffffff1673ffffffffffffffffffffffffffffffffffffffff168152602001908152602001600020549050818110156110bd576040517f08c379a00000000000000000000000000000000000000000000000000000000081526004016110b490612fae565b60405180910390fd5b8181036001600085815260200190815260200160002060008c73ffffffffffffffffffffffffffffffffffffffff1673ffffffffffffffffffffffffffffffffffffffff16815260200190815260200160002081905550816001600085815260200190815260200160002060008b73ffffffffffffffffffffffffffffffffffffffff1673ffffffffffffffffffffffffffffffffffffffff16815260200190815260200160002060008282546111749190612d99565b925050819055505050508061118890612b9a565b9050610fde565b508473ffffffffffffffffffffffffffffffffffffffff168673ffffffffffffffffffffffffffffffffffffffff168273ffffffffffffffffffffffffffffffffffffffff167f4a39dc06d4c0dbc64b70af90fd698a233a518aa5d07e595d983b8c0526c8f7fb8787604051611206929190612fce565b60405180910390a461121c818787878787611b53565b505050505050565b60008060009054906101000a900473ffffffffffffffffffffffffffffffffffffffff169050816000806101000a81548173ffffffffffffffffffffffffffffffffffffffff021916908373ffffffffffffffffffffffffffffffffffffffff1602179055508173ffffffffffffffffffffffffffffffffffffffff168173ffffffffffffffffffffffffffffffffffffffff167f8be0079c531659141344cd1fd0a4f28419497f9722a3daafe3b4186f6b6457e060405160405180910390a35050565b8173ffffffffffffffffffffffffffffffffffffffff168373ffffffffffffffffffffffffffffffffffffffff161415611357576040517f08c379a000000000000000000000000000000000000000000000000000000000815260040161134e90613077565b60405180910390fd5b80600260008573ffffffffffffffffffffffffffffffffffffffff1673ffffffffffffffffffffffffffffffffffffffff16815260200190815260200160002060008473ffffffffffffffffffffffffffffffffffffffff1673ffffffffffffffffffffffffffffffffffffffff16815260200190815260200160002060006101000a81548160ff0219169083151502179055508173ffffffffffffffffffffffffffffffffffffffff168373ffffffffffffffffffffffffffffffffffffffff167f17307eab39ab6107e8899845ad3d59bd9653f200f220920489ca2b5937696c31836040516114489190611f93565b60405180910390a3505050565b600073ffffffffffffffffffffffffffffffffffffffff168473ffffffffffffffffffffffffffffffffffffffff1614156114c5576040517f08c379a00000000000000000000000000000000000000000000000000000000081526004016114bc90612d79565b60405180910390fd5b8151835114611509576040517f08c379a000000000000000000000000000000000000000000000000000000000815260040161150090612e8a565b60405180910390fd5b6000611513610d54565b905061152481600087878787611973565b60005b84518110156115de5783818151811061154357611542612b3c565b5b60200260200101516001600087848151811061156257611561612b3c565b5b6020026020010151815260200190815260200160002060008873ffffffffffffffffffffffffffffffffffffffff1673ffffffffffffffffffffffffffffffffffffffff16815260200190815260200160002060008282546115c49190612d99565b9250508190555080806115d690612b9a565b915050611527565b508473ffffffffffffffffffffffffffffffffffffffff16600073ffffffffffffffffffffffffffffffffffffffff168273ffffffffffffffffffffffffffffffffffffffff167f4a39dc06d4c0dbc64b70af90fd698a233a518aa5d07e595d983b8c0526c8f7fb8787604051611656929190612fce565b60405180910390a461166d81600087878787611b53565b5050505050565b600073ffffffffffffffffffffffffffffffffffffffff168473ffffffffffffffffffffffffffffffffffffffff1614156116e4576040517f08c379a00000000000000000000000000000000000000000000000000000000081526004016116db90612f1c565b60405180910390fd5b60006116ee610d54565b905061170e8187876116ff886118f9565b611708886118f9565b87611973565b60006001600086815260200190815260200160002060008873ffffffffffffffffffffffffffffffffffffffff1673ffffffffffffffffffffffffffffffffffffffff168152602001908152602001600020549050838110156117a6576040517f08c379a000000000000000000000000000000000000000000000000000000000815260040161179d90612fae565b60405180910390fd5b8381036001600087815260200190815260200160002060008973ffffffffffffffffffffffffffffffffffffffff1673ffffffffffffffffffffffffffffffffffffffff16815260200190815260200160002081905550836001600087815260200190815260200160002060008873ffffffffffffffffffffffffffffffffffffffff1673ffffffffffffffffffffffffffffffffffffffff168152602001908152602001600020600082825461185d9190612d99565b925050819055508573ffffffffffffffffffffffffffffffffffffffff168773ffffffffffffffffffffffffffffffffffffffff168373ffffffffffffffffffffffffffffffffffffffff167fc3d58168c5ae7397731d063d5bbf3d657854427343f4c083240f7aacaa2d0f6288886040516118da929190612def565b60405180910390a46118f082888888888861197b565b50505050505050565b60606000600167ffffffffffffffff81111561191857611917611fc9565b5b6040519080825280602002602001820160405280156119465781602001602082028036833780820191505090505b509050828160008151811061195e5761195d612b3c565b5b60200260200101818152505080915050919050565b505050505050565b61199a8473ffffffffffffffffffffffffffffffffffffffff16611d2b565b15611b4b578373ffffffffffffffffffffffffffffffffffffffff1663f23a6e6187878686866040518663ffffffff1660e01b81526004016119e09594939291906130ec565b6020604051808303816000875af1925050508015611a1c57506040513d601f19601f82011682018060405250810190611a19919061315b565b60015b611ac257611a28613195565b806308c379a01415611a855750611a3d6131b7565b80611a485750611a87565b806040517f08c379a0000000000000000000000000000000000000000000000000000000008152600401611a7c91906121c5565b60405180910390fd5b505b6040517f08c379a0000000000000000000000000000000000000000000000000000000008152600401611ab9906132bf565b60405180910390fd5b63f23a6e6160e01b7bffffffffffffffffffffffffffffffffffffffffffffffffffffffff1916817bffffffffffffffffffffffffffffffffffffffffffffffffffffffff191614611b49576040517f08c379a0000000000000000000000000000000000000000000000000000000008152600401611b4090613351565b60405180910390fd5b505b505050505050565b611b728473ffffffffffffffffffffffffffffffffffffffff16611d2b565b15611d23578373ffffffffffffffffffffffffffffffffffffffff1663bc197c8187878686866040518663ffffffff1660e01b8152600401611bb8959493929190613371565b6020604051808303816000875af1925050508015611bf457506040513d601f19601f82011682018060405250810190611bf1919061315b565b60015b611c9a57611c00613195565b806308c379a01415611c5d5750611c156131b7565b80611c205750611c5f565b806040517f08c379a0000000000000000000000000000000000000000000000000000000008152600401611c5491906121c5565b60405180910390fd5b505b6040517f08c379a0000000000000000000000000000000000000000000000000000000008152600401611c91906132bf565b60405180910390fd5b63bc197c8160e01b7bffffffffffffffffffffffffffffffffffffffffffffffffffffffff1916817bffffffffffffffffffffffffffffffffffffffffffffffffffffffff191614611d21576040517f08c379a0000000000000000000000000000000000000000000000000000000008152600401611d1890613351565b60405180910390fd5b505b505050505050565b600080823b905060008111915050919050565b828054611d4a906129e6565b90600052602060002090601f016020900481019282611d6c5760008555611db3565b82601f10611d8557805160ff1916838001178555611db3565b82800160010185558215611db3579182015b82811115611db2578251825591602001919060010190611d97565b5b509050611dc09190611dc4565b5090565b5b80821115611ddd576000816000905550600101611dc5565b5090565b6000604051905090565b600080fd5b600080fd5b600073ffffffffffffffffffffffffffffffffffffffff82169050919050565b6000611e2082611df5565b9050919050565b611e3081611e15565b8114611e3b57600080fd5b50565b600081359050611e4d81611e27565b92915050565b6000819050919050565b611e6681611e53565b8114611e7157600080fd5b50565b600081359050611e8381611e5d565b92915050565b60008060408385031215611ea057611e9f611deb565b5b6000611eae85828601611e3e565b9250506020611ebf85828601611e74565b9150509250929050565b611ed281611e53565b82525050565b6000602082019050611eed6000830184611ec9565b92915050565b60007fffffffff0000000000000000000000000000000000000000000000000000000082169050919050565b611f2881611ef3565b8114611f3357600080fd5b50565b600081359050611f4581611f1f565b92915050565b600060208284031215611f6157611f60611deb565b5b6000611f6f84828501611f36565b91505092915050565b60008115159050919050565b611f8d81611f78565b82525050565b6000602082019050611fa86000830184611f84565b92915050565b600080fd5b600080fd5b6000601f19601f8301169050919050565b7f4e487b7100000000000000000000000000000000000000000000000000000000600052604160045260246000fd5b61200182611fb8565b810181811067ffffffffffffffff821117156120205761201f611fc9565b5b80604052505050565b6000612033611de1565b905061203f8282611ff8565b919050565b600067ffffffffffffffff82111561205f5761205e611fc9565b5b61206882611fb8565b9050602081019050919050565b82818337600083830152505050565b600061209761209284612044565b612029565b9050828152602081018484840111156120b3576120b2611fb3565b5b6120be848285612075565b509392505050565b600082601f8301126120db576120da611fae565b5b81356120eb848260208601612084565b91505092915050565b60006020828403121561210a57612109611deb565b5b600082013567ffffffffffffffff81111561212857612127611df0565b5b612134848285016120c6565b91505092915050565b600081519050919050565b600082825260208201905092915050565b60005b8381101561217757808201518184015260208101905061215c565b83811115612186576000848401525b50505050565b60006121978261213d565b6121a18185612148565b93506121b1818560208601612159565b6121ba81611fb8565b840191505092915050565b600060208201905081810360008301526121df818461218c565b905092915050565b6000602082840312156121fd576121fc611deb565b5b600061220b84828501611e74565b91505092915050565b6000806040838503121561222b5761222a611deb565b5b600061223985828601611e74565b925050602061224a85828601611e74565b9150509250929050565b600067ffffffffffffffff82111561226f5761226e611fc9565b5b602082029050602081019050919050565b600080fd5b600061229861229384612254565b612029565b905080838252602082019050602084028301858111156122bb576122ba612280565b5b835b818110156122e457806122d08882611e74565b8452602084019350506020810190506122bd565b5050509392505050565b600082601f83011261230357612302611fae565b5b8135612313848260208601612285565b91505092915050565b600067ffffffffffffffff82111561233757612336611fc9565b5b61234082611fb8565b9050602081019050919050565b600061236061235b8461231c565b612029565b90508281526020810184848401111561237c5761237b611fb3565b5b612387848285612075565b509392505050565b600082601f8301126123a4576123a3611fae565b5b81356123b484826020860161234d565b91505092915050565b600080600080600060a086880312156123d9576123d8611deb565b5b60006123e788828901611e3e565b95505060206123f888828901611e3e565b945050604086013567ffffffffffffffff81111561241957612418611df0565b5b612425888289016122ee565b935050606086013567ffffffffffffffff81111561244657612445611df0565b5b612452888289016122ee565b925050608086013567ffffffffffffffff81111561247357612472611df0565b5b61247f8882890161238f565b9150509295509295909350565b600067ffffffffffffffff8211156124a7576124a6611fc9565b5b602082029050602081019050919050565b60006124cb6124c68461248c565b612029565b905080838252602082019050602084028301858111156124ee576124ed612280565b5b835b8181101561251757806125038882611e3e565b8452602084019350506020810190506124f0565b5050509392505050565b600082601f83011261253657612535611fae565b5b81356125468482602086016124b8565b91505092915050565b6000806040838503121561256657612565611deb565b5b600083013567ffffffffffffffff81111561258457612583611df0565b5b61259085828601612521565b925050602083013567ffffffffffffffff8111156125b1576125b0611df0565b5b6125bd858286016122ee565b9150509250929050565b600081519050919050565b600082825260208201905092915050565b6000819050602082019050919050565b6125fc81611e53565b82525050565b600061260e83836125f3565b60208301905092915050565b6000602082019050919050565b6000612632826125c7565b61263c81856125d2565b9350612647836125e3565b8060005b8381101561267857815161265f8882612602565b975061266a8361261a565b92505060018101905061264b565b5085935050505092915050565b6000602082019050818103600083015261269f8184612627565b905092915050565b6126b081611e15565b82525050565b60006020820190506126cb60008301846126a7565b92915050565b6126da81611f78565b81146126e557600080fd5b50565b6000813590506126f7816126d1565b92915050565b6000806040838503121561271457612713611deb565b5b600061272285828601611e3e565b9250506020612733858286016126e8565b9150509250929050565b6000806040838503121561275457612753611deb565b5b600083013567ffffffffffffffff81111561277257612771611df0565b5b61277e858286016122ee565b925050602083013567ffffffffffffffff81111561279f5761279e611df0565b5b6127ab858286016122ee565b9150509250929050565b600080604083850312156127cc576127cb611deb565b5b60006127da85828601611e3e565b92505060206127eb85828601611e3e565b9150509250929050565b600080600080600060a0868803121561281157612810611deb565b5b600061281f88828901611e3e565b955050602061283088828901611e3e565b945050604061284188828901611e74565b935050606061285288828901611e74565b925050608086013567ffffffffffffffff81111561287357612872611df0565b5b61287f8882890161238f565b9150509295509295909350565b6000602082840312156128a2576128a1611deb565b5b60006128b084828501611e3e565b91505092915050565b7f455243313135353a2062616c616e636520717565727920666f7220746865207a60008201527f65726f2061646472657373000000000000000000000000000000000000000000602082015250565b6000612915602b83612148565b9150612920826128b9565b604082019050919050565b6000602082019050818103600083015261294481612908565b9050919050565b7f4f776e61626c653a2063616c6c6572206973206e6f7420746865206f776e6572600082015250565b6000612981602083612148565b915061298c8261294b565b602082019050919050565b600060208201905081810360008301526129b081612974565b9050919050565b7f4e487b7100000000000000000000000000000000000000000000000000000000600052602260045260246000fd5b600060028204905060018216806129fe57607f821691505b60208210811415612a1257612a116129b7565b5b50919050565b7f455243313135353a207472616e736665722063616c6c6572206973206e6f742060008201527f6f776e6572206e6f7220617070726f7665640000000000000000000000000000602082015250565b6000612a74603283612148565b9150612a7f82612a18565b604082019050919050565b60006020820190508181036000830152612aa381612a67565b9050919050565b7f455243313135353a206163636f756e747320616e6420696473206c656e67746860008201527f206d69736d617463680000000000000000000000000000000000000000000000602082015250565b6000612b06602983612148565b9150612b1182612aaa565b604082019050919050565b60006020820190508181036000830152612b3581612af9565b9050919050565b7f4e487b7100000000000000000000000000000000000000000000000000000000600052603260045260246000fd5b7f4e487b7100000000000000000000000000000000000000000000000000000000600052601160045260246000fd5b6000612ba582611e53565b91507fffffffffffffffffffffffffffffffffffffffffffffffffffffffffffffffff821415612bd857612bd7612b6b565b5b600182019050919050565b7f455243313135353a2063616c6c6572206973206e6f74206f776e6572206e6f7260008201527f20617070726f7665640000000000000000000000000000000000000000000000602082015250565b6000612c3f602983612148565b9150612c4a82612be3565b604082019050919050565b60006020820190508181036000830152612c6e81612c32565b9050919050565b7f4f776e61626c653a206e6577206f776e657220697320746865207a65726f206160008201527f6464726573730000000000000000000000000000000000000000000000000000602082015250565b6000612cd1602683612148565b9150612cdc82612c75565b604082019050919050565b60006020820190508181036000830152612d0081612cc4565b9050919050565b7f455243313135353a206d696e7420746f20746865207a65726f2061646472657360008201527f7300000000000000000000000000000000000000000000000000000000000000602082015250565b6000612d63602183612148565b9150612d6e82612d07565b604082019050919050565b60006020820190508181036000830152612d9281612d56565b9050919050565b6000612da482611e53565b9150612daf83611e53565b9250827fffffffffffffffffffffffffffffffffffffffffffffffffffffffffffffffff03821115612de457612de3612b6b565b5b828201905092915050565b6000604082019050612e046000830185611ec9565b612e116020830184611ec9565b9392505050565b7f455243313135353a2069647320616e6420616d6f756e7473206c656e6774682060008201527f6d69736d61746368000000000000000000000000000000000000000000000000602082015250565b6000612e74602883612148565b9150612e7f82612e18565b604082019050919050565b60006020820190508181036000830152612ea381612e67565b9050919050565b7f455243313135353a207472616e7366657220746f20746865207a65726f20616460008201527f6472657373000000000000000000000000000000000000000000000000000000602082015250565b6000612f06602583612148565b9150612f1182612eaa565b604082019050919050565b60006020820190508181036000830152612f3581612ef9565b9050919050565b7f455243313135353a20696e73756666696369656e742062616c616e636520666f60008201527f72207472616e7366657200000000000000000000000000000000000000000000602082015250565b6000612f98602a83612148565b9150612fa382612f3c565b604082019050919050565b60006020820190508181036000830152612fc781612f8b565b9050919050565b60006040820190508181036000830152612fe88185612627565b90508181036020830152612ffc8184612627565b90509392505050565b7f455243313135353a2073657474696e6720617070726f76616c2073746174757360008201527f20666f722073656c660000000000000000000000000000000000000000000000602082015250565b6000613061602983612148565b915061306c82613005565b604082019050919050565b6000602082019050818103600083015261309081613054565b9050919050565b600081519050919050565b600082825260208201905092915050565b60006130be82613097565b6130c881856130a2565b93506130d8818560208601612159565b6130e181611fb8565b840191505092915050565b600060a08201905061310160008301886126a7565b61310e60208301876126a7565b61311b6040830186611ec9565b6131286060830185611ec9565b818103608083015261313a81846130b3565b90509695505050505050565b60008151905061315581611f1f565b92915050565b60006020828403121561317157613170611deb565b5b600061317f84828501613146565b91505092915050565b60008160e01c9050919050565b600060033d11156131b45760046000803e6131b1600051613188565b90505b90565b600060443d10156131c75761324a565b6131cf611de1565b60043d036004823e80513d602482011167ffffffffffffffff821117156131f757505061324a565b808201805167ffffffffffffffff811115613215575050505061324a565b80602083010160043d03850181111561323257505050505061324a565b61324182602001850186611ff8565b82955050505050505b90565b7f455243313135353a207472616e7366657220746f206e6f6e204552433131353560008201527f526563656976657220696d706c656d656e746572000000000000000000000000602082015250565b60006132a9603483612148565b91506132b48261324d565b604082019050919050565b600060208201905081810360008301526132d88161329c565b9050919050565b7f455243313135353a204552433131353552656365697665722072656a6563746560008201527f6420746f6b656e73000000000000000000000000000000000000000000000000602082015250565b600061333b602883612148565b9150613346826132df565b604082019050919050565b6000602082019050818103600083015261336a8161332e565b9050919050565b600060a08201905061338660008301886126a7565b61339360208301876126a7565b81810360408301526133a58186612627565b905081810360608301526133b98185612627565b905081810360808301526133cd81846130b3565b9050969550505050505056fea2646970667358221220cfd30e421ec5d44eeb025362b54afcab0d3586639a7aa078ffb211953c8ab84d64736f6c634300080a0033697066733a2f2f495046535f4349445f544f5f5245504c4143452f7b69647d2e6a736f6e",
  "immutableReferences": {},
  "source": "// SPDX-License-Identifier: MIT\npragma solidity >=0.4.22 <0.9.0;\n\nimport '@openzeppelin/contracts/token/ERC1155/ERC1155.sol';\nimport '@openzeppelin/contracts/access/Ownable.sol';\n\ncontract ArtCollectible is Ownable, ERC1155 {\n    // Base URI\n    string private baseURI;\n    string public name;\n\n    constructor()\n        ERC1155(\n            'ipfs://IPFS_CID_TO_REPLACE/{id}.json'\n        )\n    {\n        setName('COLLECTION_NAME_TO_REPLACE');\n    }\n\n    function setURI(string memory _newuri) public onlyOwner {\n        _setURI(_newuri);\n    }\n\n    function setName(string memory _name) public onlyOwner {\n        name = _name;\n    }\n\n    function mintBatch(uint256[] memory ids, uint256[] memory amounts)\n        public\n        onlyOwner\n    {\n        _mintBatch(msg.sender, ids, amounts, '');\n    }\n\n    function mint(uint256 id, uint256 amount) public onlyOwner {\n        _mint(msg.sender, id, amount, '');\n    }\n}\n",
  "sourcePath": "/home/francesco/workspace/opensea-nfts-bulk-minter-lister/contracts/ArtCollectible.sol",
  "compiler": {
    "name": "solc",
    "version": "0.8.10+commit.fc410830.Emscripten.clang"
  },
  "schemaVersion": "3.4.3",
  "updatedAt": "2022-10-19T04:20:55.174Z",
  "networkType": "ethereum",
  "devdoc": {
    "kind": "dev",
    "methods": {
      "balanceOf(address,uint256)": {
        "details": "See {IERC1155-balanceOf}. Requirements: - `account` cannot be the zero address."
      },
      "balanceOfBatch(address[],uint256[])": {
        "details": "See {IERC1155-balanceOfBatch}. Requirements: - `accounts` and `ids` must have the same length."
      },
      "isApprovedForAll(address,address)": {
        "details": "See {IERC1155-isApprovedForAll}."
      },
      "owner()": {
        "details": "Returns the address of the current owner."
      },
      "renounceOwnership()": {
        "details": "Leaves the contract without owner. It will not be possible to call `onlyOwner` functions anymore. Can only be called by the current owner. NOTE: Renouncing ownership will leave the contract without an owner, thereby removing any functionality that is only available to the owner."
      },
      "safeBatchTransferFrom(address,address,uint256[],uint256[],bytes)": {
        "details": "See {IERC1155-safeBatchTransferFrom}."
      },
      "safeTransferFrom(address,address,uint256,uint256,bytes)": {
        "details": "See {IERC1155-safeTransferFrom}."
      },
      "setApprovalForAll(address,bool)": {
        "details": "See {IERC1155-setApprovalForAll}."
      },
      "supportsInterface(bytes4)": {
        "details": "See {IERC165-supportsInterface}."
      },
      "transferOwnership(address)": {
        "details": "Transfers ownership of the contract to a new account (`newOwner`). Can only be called by the current owner."
      },
      "uri(uint256)": {
        "details": "See {IERC1155MetadataURI-uri}. This implementation returns the same URI for *all* token types. It relies on the token type ID substitution mechanism https://eips.ethereum.org/EIPS/eip-1155#metadata[defined in the EIP]. Clients calling this function must replace the `\\{id\\}` substring with the actual token type ID."
      }
    },
    "version": 1
  },
  "userdoc": {
    "kind": "user",
    "methods": {},
    "version": 1
  }
}